{
  "contractName": "ZombieOwnership",
  "abi": [
    {
      "constant": false,
      "inputs": [
        {
          "name": "_zombieId",
          "type": "uint256"
        }
      ],
      "name": "levelUp",
      "outputs": [],
      "payable": true,
      "stateMutability": "payable",
      "type": "function"
    },
    {
      "constant": false,
      "inputs": [
        {
          "name": "_zombieId",
          "type": "uint256"
        },
        {
          "name": "_kittyId",
          "type": "uint256"
        }
      ],
      "name": "feedOnKitty",
      "outputs": [],
      "payable": false,
      "stateMutability": "nonpayable",
      "type": "function"
    },
    {
      "constant": false,
      "inputs": [
        {
          "name": "_ids",
          "type": "uint256[]"
        }
      ],
      "name": "bulkDeleteZombies",
      "outputs": [],
      "payable": false,
      "stateMutability": "nonpayable",
      "type": "function"
    },
    {
      "constant": true,
      "inputs": [
        {
          "name": "",
          "type": "uint256"
        }
      ],
      "name": "zombies",
      "outputs": [
        {
          "name": "name",
          "type": "string"
        },
        {
          "name": "dna",
          "type": "uint256"
        },
        {
          "name": "level",
          "type": "uint32"
        },
        {
          "name": "readyTime",
          "type": "uint32"
        },
        {
          "name": "winCount",
          "type": "uint16"
        },
        {
          "name": "lossCount",
          "type": "uint16"
        }
      ],
      "payable": false,
      "stateMutability": "view",
      "type": "function"
    },
    {
      "constant": false,
      "inputs": [],
      "name": "withdraw",
      "outputs": [],
      "payable": false,
      "stateMutability": "nonpayable",
      "type": "function"
    },
    {
      "constant": true,
      "inputs": [
        {
          "name": "_owner",
          "type": "address"
        }
      ],
      "name": "getZombiesByOwner",
      "outputs": [
        {
          "name": "",
          "type": "uint256[]"
        }
      ],
      "payable": false,
      "stateMutability": "view",
      "type": "function"
    },
    {
      "constant": true,
      "inputs": [
        {
          "name": "",
          "type": "uint256"
        }
      ],
      "name": "zombieToOwner",
      "outputs": [
        {
          "name": "",
          "type": "address"
        }
      ],
      "payable": false,
      "stateMutability": "view",
      "type": "function"
    },
    {
      "constant": false,
      "inputs": [
        {
          "name": "_address",
          "type": "address"
        }
      ],
      "name": "setKittyContractAddress",
      "outputs": [],
      "payable": false,
      "stateMutability": "nonpayable",
      "type": "function"
    },
    {
      "constant": false,
      "inputs": [
        {
          "name": "_zombieId",
          "type": "uint256"
        },
        {
          "name": "_newDna",
          "type": "uint256"
        }
      ],
      "name": "changeDna",
      "outputs": [],
      "payable": false,
      "stateMutability": "nonpayable",
      "type": "function"
    },
    {
      "constant": false,
      "inputs": [],
      "name": "renounceOwnership",
      "outputs": [],
      "payable": false,
      "stateMutability": "nonpayable",
      "type": "function"
    },
    {
      "constant": false,
      "inputs": [
        {
          "name": "_name",
          "type": "string"
        }
      ],
      "name": "createRandomZombie",
      "outputs": [],
      "payable": false,
      "stateMutability": "nonpayable",
      "type": "function"
    },
    {
      "constant": true,
      "inputs": [
        {
          "name": "",
          "type": "uint256"
        }
      ],
      "name": "listedZombies",
      "outputs": [
        {
          "name": "",
          "type": "uint256"
        }
      ],
      "payable": false,
      "stateMutability": "view",
      "type": "function"
    },
    {
      "constant": true,
      "inputs": [],
      "name": "owner",
      "outputs": [
        {
          "name": "",
          "type": "address"
        }
      ],
      "payable": false,
      "stateMutability": "view",
      "type": "function"
    },
    {
      "constant": true,
      "inputs": [],
      "name": "isOwner",
      "outputs": [
        {
          "name": "",
          "type": "bool"
        }
      ],
      "payable": false,
      "stateMutability": "view",
      "type": "function"
    },
    {
      "constant": true,
      "inputs": [
        {
          "name": "",
          "type": "uint256"
        }
      ],
      "name": "zombieListings",
      "outputs": [
        {
          "name": "seller",
          "type": "address"
        },
        {
          "name": "price",
          "type": "uint256"
        },
        {
          "name": "isActive",
          "type": "bool"
        }
      ],
      "payable": false,
      "stateMutability": "view",
      "type": "function"
    },
    {
      "constant": false,
      "inputs": [
        {
          "name": "_zombieId",
          "type": "uint256"
        }
      ],
      "name": "deleteZombie",
      "outputs": [],
      "payable": false,
      "stateMutability": "nonpayable",
      "type": "function"
    },
    {
      "constant": false,
      "inputs": [
        {
          "name": "_zombieId",
          "type": "uint256"
        },
        {
          "name": "_newName",
          "type": "string"
        }
      ],
      "name": "changeName",
      "outputs": [],
      "payable": false,
      "stateMutability": "nonpayable",
      "type": "function"
    },
    {
      "constant": false,
      "inputs": [
        {
          "name": "_fee",
          "type": "uint256"
        }
      ],
      "name": "setLevelUpFee",
      "outputs": [],
      "payable": false,
      "stateMutability": "nonpayable",
      "type": "function"
    },
    {
      "constant": false,
      "inputs": [
        {
          "name": "_zombieId",
          "type": "uint256"
        },
        {
          "name": "_targetId",
          "type": "uint256"
        }
      ],
      "name": "attack",
      "outputs": [],
      "payable": false,
      "stateMutability": "nonpayable",
      "type": "function"
    },
    {
      "constant": false,
      "inputs": [
        {
          "name": "newOwner",
          "type": "address"
        }
      ],
      "name": "transferOwnership",
      "outputs": [],
      "payable": false,
      "stateMutability": "nonpayable",
      "type": "function"
    },
    {
      "anonymous": false,
      "inputs": [
        {
          "indexed": true,
          "name": "zombieId",
          "type": "uint256"
        },
        {
          "indexed": true,
          "name": "seller",
          "type": "address"
        },
        {
          "indexed": false,
          "name": "price",
          "type": "uint256"
        }
      ],
      "name": "ZombieListed",
      "type": "event"
    },
    {
      "anonymous": false,
      "inputs": [
        {
          "indexed": true,
          "name": "zombieId",
          "type": "uint256"
        },
        {
          "indexed": true,
          "name": "seller",
          "type": "address"
        },
        {
          "indexed": true,
          "name": "buyer",
          "type": "address"
        },
        {
          "indexed": false,
          "name": "price",
          "type": "uint256"
        }
      ],
      "name": "ZombieSold",
      "type": "event"
    },
    {
      "anonymous": false,
      "inputs": [
        {
          "indexed": true,
          "name": "zombieId",
          "type": "uint256"
        },
        {
          "indexed": true,
          "name": "seller",
          "type": "address"
        }
      ],
      "name": "ListingCancelled",
      "type": "event"
    },
    {
      "anonymous": false,
      "inputs": [
        {
          "indexed": true,
          "name": "_from",
          "type": "address"
        },
        {
          "indexed": true,
          "name": "_to",
          "type": "address"
        },
        {
          "indexed": true,
          "name": "_tokenId",
          "type": "uint256"
        }
      ],
      "name": "Transfer",
      "type": "event"
    },
    {
      "anonymous": false,
      "inputs": [
        {
          "indexed": true,
          "name": "_owner",
          "type": "address"
        },
        {
          "indexed": true,
          "name": "_approved",
          "type": "address"
        },
        {
          "indexed": true,
          "name": "_tokenId",
          "type": "uint256"
        }
      ],
      "name": "Approval",
      "type": "event"
    },
    {
      "anonymous": false,
      "inputs": [
        {
          "indexed": false,
          "name": "zombieId",
          "type": "uint256"
        },
        {
          "indexed": false,
          "name": "name",
          "type": "string"
        },
        {
          "indexed": false,
          "name": "dna",
          "type": "uint256"
        }
      ],
      "name": "NewZombie",
      "type": "event"
    },
    {
      "anonymous": false,
      "inputs": [
        {
          "indexed": false,
          "name": "zombieId",
          "type": "uint256"
        }
      ],
      "name": "ZombieDeleted",
      "type": "event"
    },
    {
      "anonymous": false,
      "inputs": [
        {
          "indexed": true,
          "name": "previousOwner",
          "type": "address"
        },
        {
          "indexed": true,
          "name": "newOwner",
          "type": "address"
        }
      ],
      "name": "OwnershipTransferred",
      "type": "event"
    },
    {
      "constant": true,
      "inputs": [
        {
          "name": "_owner",
          "type": "address"
        }
      ],
      "name": "balanceOf",
      "outputs": [
        {
          "name": "",
          "type": "uint256"
        }
      ],
      "payable": false,
      "stateMutability": "view",
      "type": "function"
    },
    {
      "constant": true,
      "inputs": [
        {
          "name": "_tokenId",
          "type": "uint256"
        }
      ],
      "name": "ownerOf",
      "outputs": [
        {
          "name": "",
          "type": "address"
        }
      ],
      "payable": false,
      "stateMutability": "view",
      "type": "function"
    },
    {
      "constant": false,
      "inputs": [
        {
          "name": "_from",
          "type": "address"
        },
        {
          "name": "_to",
          "type": "address"
        },
        {
          "name": "_tokenId",
          "type": "uint256"
        }
      ],
      "name": "transferFrom",
      "outputs": [],
      "payable": true,
      "stateMutability": "payable",
      "type": "function"
    },
    {
      "constant": false,
      "inputs": [
        {
          "name": "_approved",
          "type": "address"
        },
        {
          "name": "_tokenId",
          "type": "uint256"
        }
      ],
      "name": "approve",
      "outputs": [],
      "payable": true,
      "stateMutability": "payable",
      "type": "function"
    },
    {
      "constant": false,
      "inputs": [
        {
          "name": "_zombieId",
          "type": "uint256"
        },
        {
          "name": "_price",
          "type": "uint256"
        }
      ],
      "name": "listZombieForSale",
      "outputs": [],
      "payable": false,
      "stateMutability": "nonpayable",
      "type": "function"
    },
    {
      "constant": false,
      "inputs": [
        {
          "name": "_zombieId",
          "type": "uint256"
        }
      ],
      "name": "buyZombie",
      "outputs": [],
      "payable": true,
      "stateMutability": "payable",
      "type": "function"
    },
    {
      "constant": false,
      "inputs": [
        {
          "name": "_zombieId",
          "type": "uint256"
        }
      ],
      "name": "cancelListing",
      "outputs": [],
      "payable": false,
      "stateMutability": "nonpayable",
      "type": "function"
    },
    {
      "constant": true,
      "inputs": [],
      "name": "getActiveListings",
      "outputs": [
        {
          "name": "",
          "type": "uint256[]"
        }
      ],
      "payable": false,
      "stateMutability": "view",
      "type": "function"
    },
    {
      "constant": true,
      "inputs": [
        {
          "name": "_zombieId",
          "type": "uint256"
        }
      ],
      "name": "isListed",
      "outputs": [
        {
          "name": "",
          "type": "bool"
        }
      ],
      "payable": false,
      "stateMutability": "view",
      "type": "function"
    },
    {
      "constant": true,
      "inputs": [
        {
          "name": "_zombieId",
          "type": "uint256"
        }
      ],
      "name": "getListing",
      "outputs": [
        {
          "name": "seller",
          "type": "address"
        },
        {
          "name": "price",
          "type": "uint256"
        },
        {
          "name": "isActive",
          "type": "bool"
        }
      ],
      "payable": false,
      "stateMutability": "view",
      "type": "function"
    }
  ],
  "bytecode": "0x60806040526010600155600154600a0a6002556201518060035566038d7ea4c6800060085560006009556046600a55336000806101000a81548173ffffffffffffffffffffffffffffffffffffffff021916908373ffffffffffffffffffffffffffffffffffffffff1602179055506000809054906101000a900473ffffffffffffffffffffffffffffffffffffffff1673ffffffffffffffffffffffffffffffffffffffff16600073ffffffffffffffffffffffffffffffffffffffff167f8be0079c531659141344cd1fd0a4f28419497f9722a3daafe3b4186f6b6457e060405160405180910390a3613676806100f96000396000f300608060405260043610610180576000357c0100000000000000000000000000000000000000000000000000000000900463ffffffff168063095ea7b3146101855780630ce90ec2146101c5578063107a274a146101e557806317a7f4cc146102645780631d72d5791461029b5780631dc42ae9146102d25780632052465e1461030d57806323b872dd146103fe578063305a67a81461045e5780633ccfd60b1461048b5780634412e104146104a2578063528b7b8f1461053a5780635f4623f1146105a75780635faf2880146105ea5780636352211e1461062157806370a082311461068e578063715018a6146106e55780637bff0a01146106fc5780637ca560dc1461076557806387c35bc0146107a65780638da5cb5b146108125780638f32d59b14610869578063a14ddd4f14610898578063a266bbc914610917578063b92e2d7414610944578063c39cbef114610964578063ccf670f8146109a9578063e1fa7638146109d6578063f2fde38b14610a0d578063fcce488314610a50575b600080fd5b6101c3600480360381019080803573ffffffffffffffffffffffffffffffffffffffff16906020019092919080359060200190929190505050610a95565b005b6101e360048036038101908080359060200190929190505050610bb5565b005b3480156101f157600080fd5b5061021060048036038101908080359060200190929190505050610c50565b604051808473ffffffffffffffffffffffffffffffffffffffff1673ffffffffffffffffffffffffffffffffffffffff16815260200183815260200182151515158152602001935050505060405180910390f35b34801561027057600080fd5b506102996004803603810190808035906020019092919080359060200190929190505050610d16565b005b3480156102a757600080fd5b506102d06004803603810190808035906020019092919080359060200190929190505050610ebf565b005b3480156102de57600080fd5b5061030b60048036038101908080359060200190820180359060200191909192939192939050505061117a565b005b34801561031957600080fd5b50610338600480360381019080803590602001909291905050506112a4565b60405180806020018781526020018663ffffffff1663ffffffff1681526020018563ffffffff1663ffffffff1681526020018461ffff1661ffff1681526020018361ffff1661ffff168152602001828103825288818151815260200191508051906020019080838360005b838110156103be5780820151818401526020810190506103a3565b50505050905090810190601f1680156103eb5780820380516001836020036101000a031916815260200191505b5097505050505050505060405180910390f35b61045c600480360381019080803573ffffffffffffffffffffffffffffffffffffffff169060200190929190803573ffffffffffffffffffffffffffffffffffffffff169060200190929190803590602001909291905050506113c3565b005b34801561046a57600080fd5b5061048960048036038101908080359060200190929190505050611579565b005b34801561049757600080fd5b506104a0611742565b005b3480156104ae57600080fd5b506104e3600480360381019080803573ffffffffffffffffffffffffffffffffffffffff1690602001909291905050506117c2565b6040518080602001828103825283818151815260200191508051906020019060200280838360005b8381101561052657808201518184015260208101905061050b565b505050509050019250505060405180910390f35b34801561054657600080fd5b50610565600480360381019080803590602001909291905050506118f4565b604051808273ffffffffffffffffffffffffffffffffffffffff1673ffffffffffffffffffffffffffffffffffffffff16815260200191505060405180910390f35b3480156105b357600080fd5b506105e8600480360381019080803573ffffffffffffffffffffffffffffffffffffffff169060200190929190505050611927565b005b3480156105f657600080fd5b5061061f600480360381019080803590602001909291908035906020019092919050505061197e565b005b34801561062d57600080fd5b5061064c60048036038101908080359060200190929190505050611a60565b604051808273ffffffffffffffffffffffffffffffffffffffff1673ffffffffffffffffffffffffffffffffffffffff16815260200191505060405180910390f35b34801561069a57600080fd5b506106cf600480360381019080803573ffffffffffffffffffffffffffffffffffffffff169060200190929190505050611a9d565b6040518082815260200191505060405180910390f35b3480156106f157600080fd5b506106fa611ae6565b005b34801561070857600080fd5b50610763600480360381019080803590602001908201803590602001908080601f0160208091040260200160405190810160405280939291908181526020018383808284378201915050505050509192919290505050611bb8565b005b34801561077157600080fd5b5061079060048036038101908080359060200190929190505050611be4565b6040518082815260200191505060405180910390f35b3480156107b257600080fd5b506107bb611c07565b6040518080602001828103825283818151815260200191508051906020019060200280838360005b838110156107fe5780820151818401526020810190506107e3565b505050509050019250505060405180910390f35b34801561081e57600080fd5b50610827611d60565b604051808273ffffffffffffffffffffffffffffffffffffffff1673ffffffffffffffffffffffffffffffffffffffff16815260200191505060405180910390f35b34801561087557600080fd5b5061087e611d89565b604051808215151515815260200191505060405180910390f35b3480156108a457600080fd5b506108c360048036038101908080359060200190929190505050611de0565b604051808473ffffffffffffffffffffffffffffffffffffffff1673ffffffffffffffffffffffffffffffffffffffff16815260200183815260200182151515158152602001935050505060405180910390f35b34801561092357600080fd5b5061094260048036038101908080359060200190929190505050611e37565b005b61096260048036038101908080359060200190929190505050611eb2565b005b34801561097057600080fd5b506109a760048036038101908080359060200190929190803590602001908201803590602001919091929391929390505050612311565b005b3480156109b557600080fd5b506109d4600480360381019080803590602001909291905050506123ff565b005b3480156109e257600080fd5b50610a0b600480360381019080803590602001909291908035906020019092919050505061241c565b005b348015610a1957600080fd5b50610a4e600480360381019080803573ffffffffffffffffffffffffffffffffffffffff1690602001909291905050506126af565b005b348015610a5c57600080fd5b50610a7b600480360381019080803590602001909291905050506126ce565b604051808215151515815260200191505060405180910390f35b806005600082815260200190815260200160002060009054906101000a900473ffffffffffffffffffffffffffffffffffffffff1673ffffffffffffffffffffffffffffffffffffffff163373ffffffffffffffffffffffffffffffffffffffff16141515610b0357600080fd5b82600b600084815260200190815260200160002060006101000a81548173ffffffffffffffffffffffffffffffffffffffff021916908373ffffffffffffffffffffffffffffffffffffffff160217905550818373ffffffffffffffffffffffffffffffffffffffff163373ffffffffffffffffffffffffffffffffffffffff167f8c5be1e5ebec7d5bd14f71427d1e84f3dd0314c0f7b2291e5b200ac8c7c3b92560405160405180910390a4505050565b60085434141515610bc557600080fd5b610c0f6001600483815481101515610bd957fe5b906000526020600020906003020160020160009054906101000a900463ffffffff1663ffffffff166126fb90919063ffffffff16565b600482815481101515610c1e57fe5b906000526020600020906003020160020160006101000a81548163ffffffff021916908363ffffffff16021790555050565b6000806000610c5d61346b565b600c6000868152602001908152602001600020606060405190810160405290816000820160009054906101000a900473ffffffffffffffffffffffffffffffffffffffff1673ffffffffffffffffffffffffffffffffffffffff1673ffffffffffffffffffffffffffffffffffffffff168152602001600182015481526020016002820160009054906101000a900460ff1615151515815250509050806000015181602001518260400151935093509350509193909250565b6000600760009054906101000a900473ffffffffffffffffffffffffffffffffffffffff1673ffffffffffffffffffffffffffffffffffffffff1663e98b7f4d836040518263ffffffff167c01000000000000000000000000000000000000000000000000000000000281526004018082815260200191505061014060405180830381600087803b158015610daa57600080fd5b505af1158015610dbe573d6000803e3d6000fd5b505050506040513d610140811015610dd557600080fd5b810190808051906020019092919080519060200190929190805190602001909291908051906020019092919080519060200190929190805190602001909291908051906020019092919080519060200190929190805190602001909291908051906020019092919050505090919293949596979850909192939495969750909192939495965090919293949550909192939450909192935090919250909150905080915050610eba83826040805190810160405280600581526020017f6b69747479000000000000000000000000000000000000000000000000000000815250612725565b505050565b816005600082815260200190815260200160002060009054906101000a900473ffffffffffffffffffffffffffffffffffffffff1673ffffffffffffffffffffffffffffffffffffffff163373ffffffffffffffffffffffffffffffffffffffff16141515610f2d57600080fd5b600082111515610fa5576040517f08c379a000000000000000000000000000000000000000000000000000000000815260040180806020018281038252601c8152602001807f5072696365206d7573742062652067726561746572207468616e20300000000081525060200191505060405180910390fd5b600c600084815260200190815260200160002060020160009054906101000a900460ff1615151561103e576040517f08c379a00000000000000000000000000000000000000000000000000000000081526004018080602001828103825260158152602001807f5a6f6d62696520616c7265616479206c6973746564000000000000000000000081525060200191505060405180910390fd5b6060604051908101604052803373ffffffffffffffffffffffffffffffffffffffff16815260200183815260200160011515815250600c600085815260200190815260200160002060008201518160000160006101000a81548173ffffffffffffffffffffffffffffffffffffffff021916908373ffffffffffffffffffffffffffffffffffffffff1602179055506020820151816001015560408201518160020160006101000a81548160ff021916908315150217905550905050600d8390806001815401808255809150509060018203906000526020600020016000909192909190915055503373ffffffffffffffffffffffffffffffffffffffff16837f76cafae57ae500024885b2b2ecd0d194cb1b22f2958c905059207be8d60a4e5e846040518082815260200191505060405180910390a3505050565b60008090505b8282905081101561129f573373ffffffffffffffffffffffffffffffffffffffff166005600085858581811015156111b457fe5b90506020020135815260200190815260200160002060009054906101000a900473ffffffffffffffffffffffffffffffffffffffff1673ffffffffffffffffffffffffffffffffffffffff16141515611275576040517f08c379a000000000000000000000000000000000000000000000000000000000815260040180806020018281038252601a8152602001807f596f7520646f206e6f74206f776e2074686973207a6f6d62696500000000000081525060200191505060405180910390fd5b611292838383818110151561128657fe5b905060200201356129d2565b8080600101915050611180565b505050565b6004818154811015156112b357fe5b9060005260206000209060030201600091509050806000018054600181600116156101000203166002900480601f01602080910402602001604051908101604052809291908181526020018280546001816001161561010002031660029004801561135f5780601f106113345761010080835404028352916020019161135f565b820191906000526020600020905b81548152906001019060200180831161134257829003601f168201915b5050505050908060010154908060020160009054906101000a900463ffffffff16908060020160049054906101000a900463ffffffff16908060020160089054906101000a900461ffff169080600201600a9054906101000a900461ffff16905086565b3373ffffffffffffffffffffffffffffffffffffffff166005600083815260200190815260200160002060009054906101000a900473ffffffffffffffffffffffffffffffffffffffff1673ffffffffffffffffffffffffffffffffffffffff16148061148e57503373ffffffffffffffffffffffffffffffffffffffff16600b600083815260200190815260200160002060009054906101000a900473ffffffffffffffffffffffffffffffffffffffff1673ffffffffffffffffffffffffffffffffffffffff16145b151561149957600080fd5b600c600082815260200190815260200160002060020160009054906101000a900460ff1615611569576000600c600083815260200190815260200160002060020160006101000a81548160ff0219169083151502179055506005600082815260200190815260200160002060009054906101000a900473ffffffffffffffffffffffffffffffffffffffff1673ffffffffffffffffffffffffffffffffffffffff16817f8e25282255ab31897df2b0456bb993ac7f84d376861aefd84901d2d63a7428a260405160405180910390a35b611574838383612c21565b505050565b6000600c600083815260200190815260200160002090508060020160009054906101000a900460ff161515611616576040517f08c379a00000000000000000000000000000000000000000000000000000000081526004018080602001828103825260148152602001807f5a6f6d626965206973206e6f74206c697374656400000000000000000000000081525060200191505060405180910390fd5b8060000160009054906101000a900473ffffffffffffffffffffffffffffffffffffffff1673ffffffffffffffffffffffffffffffffffffffff163373ffffffffffffffffffffffffffffffffffffffff161415156116dd576040517f08c379a000000000000000000000000000000000000000000000000000000000815260040180806020018281038252601e8152602001807f4f6e6c792073656c6c65722063616e2063616e63656c206c697374696e67000081525060200191505060405180910390fd5b60008160020160006101000a81548160ff0219169083151502179055503373ffffffffffffffffffffffffffffffffffffffff16827f8e25282255ab31897df2b0456bb993ac7f84d376861aefd84901d2d63a7428a260405160405180910390a35050565b600061174c611d89565b151561175757600080fd5b61175f611d60565b90508073ffffffffffffffffffffffffffffffffffffffff166108fc3073ffffffffffffffffffffffffffffffffffffffff16319081150290604051600060405180830381858888f193505050501580156117be573d6000803e3d6000fd5b5050565b606080600080600660008673ffffffffffffffffffffffffffffffffffffffff1673ffffffffffffffffffffffffffffffffffffffff168152602001908152602001600020546040519080825280602002602001820160405280156118365781602001602082028038833980820191505090505b50925060009150600090505b6004805490508110156118e9578473ffffffffffffffffffffffffffffffffffffffff166005600083815260200190815260200160002060009054906101000a900473ffffffffffffffffffffffffffffffffffffffff1673ffffffffffffffffffffffffffffffffffffffff1614156118dc578083838151811015156118c557fe5b906020019060200201818152505081806001019250505b8080600101915050611842565b829350505050919050565b60056020528060005260406000206000915054906101000a900473ffffffffffffffffffffffffffffffffffffffff1681565b61192f611d89565b151561193a57600080fd5b80600760006101000a81548173ffffffffffffffffffffffffffffffffffffffff021916908373ffffffffffffffffffffffffffffffffffffffff16021790555050565b6014828160048281548110151561199157fe5b906000526020600020906003020160020160009054906101000a900463ffffffff1663ffffffff16101515156119c657600080fd5b836005600082815260200190815260200160002060009054906101000a900473ffffffffffffffffffffffffffffffffffffffff1673ffffffffffffffffffffffffffffffffffffffff163373ffffffffffffffffffffffffffffffffffffffff16141515611a3457600080fd5b83600486815481101515611a4457fe5b9060005260206000209060030201600101819055505050505050565b60006005600083815260200190815260200160002060009054906101000a900473ffffffffffffffffffffffffffffffffffffffff169050919050565b6000600660008373ffffffffffffffffffffffffffffffffffffffff1673ffffffffffffffffffffffffffffffffffffffff168152602001908152602001600020549050919050565b611aee611d89565b1515611af957600080fd5b600073ffffffffffffffffffffffffffffffffffffffff166000809054906101000a900473ffffffffffffffffffffffffffffffffffffffff1673ffffffffffffffffffffffffffffffffffffffff167f8be0079c531659141344cd1fd0a4f28419497f9722a3daafe3b4186f6b6457e060405160405180910390a360008060006101000a81548173ffffffffffffffffffffffffffffffffffffffff021916908373ffffffffffffffffffffffffffffffffffffffff160217905550565b6000611bc382612dff565b9050606481811515611bd157fe5b0681039050611be08282612eed565b5050565b600d81815481101515611bf357fe5b906000526020600020016000915090505481565b6060600080606060008060009450600093505b600d80549050841015611c7f57600c6000600d86815481101515611c3a57fe5b9060005260206000200154815260200190815260200160002060020160009054906101000a900460ff1615611c725784806001019550505b8380600101945050611c1a565b84604051908082528060200260200182016040528015611cae5781602001602082028038833980820191505090505b50925060009150600090505b600d80549050811015611d5557600c6000600d83815481101515611cda57fe5b9060005260206000200154815260200190815260200160002060020160009054906101000a900460ff1615611d4857600d81815481101515611d1857fe5b90600052602060002001548383815181101515611d3157fe5b906020019060200201818152505081806001019250505b8080600101915050611cba565b829550505050505090565b60008060009054906101000a900473ffffffffffffffffffffffffffffffffffffffff16905090565b60008060009054906101000a900473ffffffffffffffffffffffffffffffffffffffff1673ffffffffffffffffffffffffffffffffffffffff163373ffffffffffffffffffffffffffffffffffffffff1614905090565b600c6020528060005260406000206000915090508060000160009054906101000a900473ffffffffffffffffffffffffffffffffffffffff16908060010154908060020160009054906101000a900460ff16905083565b806005600082815260200190815260200160002060009054906101000a900473ffffffffffffffffffffffffffffffffffffffff1673ffffffffffffffffffffffffffffffffffffffff163373ffffffffffffffffffffffffffffffffffffffff16141515611ea557600080fd5b611eae826129d2565b5050565b6000806000600c600085815260200190815260200160002092508260020160009054906101000a900460ff161515611f52576040517f08c379a000000000000000000000000000000000000000000000000000000000815260040180806020018281038252601d8152602001807f5a6f6d626965206973206e6f74206c697374656420666f722073616c6500000081525060200191505060405180910390fd5b82600101543410151515611fce576040517f08c379a00000000000000000000000000000000000000000000000000000000081526004018080602001828103825260148152602001807f496e73756666696369656e74207061796d656e7400000000000000000000000081525060200191505060405180910390fd5b8260000160009054906101000a900473ffffffffffffffffffffffffffffffffffffffff1673ffffffffffffffffffffffffffffffffffffffff163373ffffffffffffffffffffffffffffffffffffffff1614151515612096576040517f08c379a000000000000000000000000000000000000000000000000000000000815260040180806020018281038252601a8152602001807f43616e6e6f742062757920796f7572206f776e207a6f6d62696500000000000081525060200191505060405180910390fd5b8260000160009054906101000a900473ffffffffffffffffffffffffffffffffffffffff1673ffffffffffffffffffffffffffffffffffffffff166005600086815260200190815260200160002060009054906101000a900473ffffffffffffffffffffffffffffffffffffffff1673ffffffffffffffffffffffffffffffffffffffff161415156121b6576040517f08c379a00000000000000000000000000000000000000000000000000000000081526004018080602001828103825260218152602001807f53656c6c6572206e6f206c6f6e676572206f776e732074686973207a6f6d626981526020017f650000000000000000000000000000000000000000000000000000000000000081525060400191505060405180910390fd5b8260000160009054906101000a900473ffffffffffffffffffffffffffffffffffffffff1691508260010154905060008360020160006101000a81548160ff02191690831515021790555061220c823386612c21565b8173ffffffffffffffffffffffffffffffffffffffff166108fc829081150290604051600060405180830381858888f19350505050158015612252573d6000803e3d6000fd5b50803411156122a5573373ffffffffffffffffffffffffffffffffffffffff166108fc8234039081150290604051600060405180830381858888f193505050501580156122a3573d6000803e3d6000fd5b505b3373ffffffffffffffffffffffffffffffffffffffff168273ffffffffffffffffffffffffffffffffffffffff16857fa52a24d026f5b34fed175ff62d1bcaa546727ad17353c5cb027974a0d2f91bf4846040518082815260200191505060405180910390a450505050565b6002838160048281548110151561232457fe5b906000526020600020906003020160020160009054906101000a900463ffffffff1663ffffffff161015151561235957600080fd5b846005600082815260200190815260200160002060009054906101000a900473ffffffffffffffffffffffffffffffffffffffff1673ffffffffffffffffffffffffffffffffffffffff163373ffffffffffffffffffffffffffffffffffffffff161415156123c757600080fd5b84846004888154811015156123d857fe5b906000526020600020906003020160000191906123f69291906134a5565b50505050505050565b612407611d89565b151561241257600080fd5b8060088190555050565b6000806000846005600082815260200190815260200160002060009054906101000a900473ffffffffffffffffffffffffffffffffffffffff1673ffffffffffffffffffffffffffffffffffffffff163373ffffffffffffffffffffffffffffffffffffffff1614151561248f57600080fd5b60048681548110151561249e57fe5b906000526020600020906003020193506004858154811015156124bd57fe5b906000526020600020906003020192506124d760646131c0565b9150600a548211151561260d5761250e60018560020160089054906101000a900461ffff1661ffff166132c390919063ffffffff16565b8460020160086101000a81548161ffff021916908361ffff16021790555061255a60018560020160009054906101000a900463ffffffff1663ffffffff166126fb90919063ffffffff16565b8460020160006101000a81548163ffffffff021916908363ffffffff1602179055506125a6600184600201600a9054906101000a900461ffff1661ffff166132c390919063ffffffff16565b83600201600a6101000a81548161ffff021916908361ffff1602179055506126088684600101546040805190810160405280600681526020017f7a6f6d6269650000000000000000000000000000000000000000000000000000815250612725565b6126a7565b612637600185600201600a9054906101000a900461ffff1661ffff166132c390919063ffffffff16565b84600201600a6101000a81548161ffff021916908361ffff16021790555061267f60018460020160089054906101000a900461ffff1661ffff166132c390919063ffffffff16565b8360020160086101000a81548161ffff021916908361ffff1602179055506126a6846132e9565b5b505050505050565b6126b7611d89565b15156126c257600080fd5b6126cb81613313565b50565b6000600c600083815260200190815260200160002060020160009054906101000a900460ff169050919050565b60008082840190508363ffffffff168163ffffffff161015151561271b57fe5b8091505092915050565b600080846005600082815260200190815260200160002060009054906101000a900473ffffffffffffffffffffffffffffffffffffffff1673ffffffffffffffffffffffffffffffffffffffff163373ffffffffffffffffffffffffffffffffffffffff1614151561279657600080fd5b6004868154811015156127a557fe5b906000526020600020906003020192506127be8361340d565b15156127c957600080fd5b600254858115156127d657fe5b0694506002858460010154018115156127eb57fe5b04915060405160200180807f6b6974747900000000000000000000000000000000000000000000000000000081525060050190506040516020818303038152906040526040518082805190602001908083835b602083101515612863578051825260208201915060208101905060208303925061283e565b6001836020036101000a038019825116818451168082178552505050505050905001915050604051809103902060001916846040516020018082805190602001908083835b6020831015156128cd57805182526020820191506020810190506020830392506128a8565b6001836020036101000a0380198251168184511680821785525050505050509050019150506040516020818303038152906040526040518082805190602001908083835b6020831015156129365780518252602082019150602081019050602083039250612911565b6001836020036101000a038019825116818451168082178552505050505050905001915050604051809103902060001916141561298257606360648381151561297b57fe5b0683030191505b6129c16040805190810160405280600681526020017f4e6f4e616d65000000000000000000000000000000000000000000000000000081525083612eed565b6129ca836132e9565b505050505050565b60006005600083815260200190815260200160002060009054906101000a900473ffffffffffffffffffffffffffffffffffffffff169050600073ffffffffffffffffffffffffffffffffffffffff168173ffffffffffffffffffffffffffffffffffffffff1614151515612aaf576040517f08c379a00000000000000000000000000000000000000000000000000000000081526004018080602001828103825260158152602001807f5a6f6d62696520646f6573206e6f74206578697374000000000000000000000081525060200191505060405180910390fd5b612b026001600660008473ffffffffffffffffffffffffffffffffffffffff1673ffffffffffffffffffffffffffffffffffffffff1681526020019081526020016000205461343490919063ffffffff16565b600660008373ffffffffffffffffffffffffffffffffffffffff1673ffffffffffffffffffffffffffffffffffffffff168152602001908152602001600020819055506005600083815260200190815260200160002060006101000a81549073ffffffffffffffffffffffffffffffffffffffff02191690556000600483815481101515612b8c57fe5b9060005260206000209060030201600101819055506020604051908101604052806000815250600483815481101515612bc157fe5b90600052602060002090600302016000019080519060200190612be5929190613525565b507f92b0e88d0e837e13cf0123d821bffcb4af5a9a4c09c48c5205c065dce06c7025826040518082815260200191505060405180910390a15050565b612c746001600660008573ffffffffffffffffffffffffffffffffffffffff1673ffffffffffffffffffffffffffffffffffffffff1681526020019081526020016000205461344d90919063ffffffff16565b600660008473ffffffffffffffffffffffffffffffffffffffff1673ffffffffffffffffffffffffffffffffffffffff16815260200190815260200160002081905550612d0a6001600660008673ffffffffffffffffffffffffffffffffffffffff1673ffffffffffffffffffffffffffffffffffffffff1681526020019081526020016000205461343490919063ffffffff16565b600660008573ffffffffffffffffffffffffffffffffffffffff1673ffffffffffffffffffffffffffffffffffffffff16815260200190815260200160002081905550816005600083815260200190815260200160002060006101000a81548173ffffffffffffffffffffffffffffffffffffffff021916908373ffffffffffffffffffffffffffffffffffffffff160217905550808273ffffffffffffffffffffffffffffffffffffffff168473ffffffffffffffffffffffffffffffffffffffff167fddf252ad1be2c89b69c2b068fc378daa952ba7f163c4a11628f55a4df523b3ef60405160405180910390a4505050565b600080826040516020018082805190602001908083835b602083101515612e3b5780518252602082019150602081019050602083039250612e16565b6001836020036101000a0380198251168184511680821785525050505050509050019150506040516020818303038152906040526040518082805190602001908083835b602083101515612ea45780518252602082019150602081019050602083039250612e7f565b6001836020036101000a038019825116818451168082178552505050505050905001915050604051809103902060019004905060025481811515612ee457fe5b06915050919050565b60006001600460c060405190810160405280868152602001858152602001600163ffffffff168152602001600354420163ffffffff168152602001600061ffff168152602001600061ffff16815250908060018154018082558091505090600182039060005260206000209060030201600090919290919091506000820151816000019080519060200190612f839291906135a5565b506020820151816001015560408201518160020160006101000a81548163ffffffff021916908363ffffffff16021790555060608201518160020160046101000a81548163ffffffff021916908363ffffffff16021790555060808201518160020160086101000a81548161ffff021916908361ffff16021790555060a082015181600201600a6101000a81548161ffff021916908361ffff1602179055505050039050336005600083815260200190815260200160002060006101000a81548173ffffffffffffffffffffffffffffffffffffffff021916908373ffffffffffffffffffffffffffffffffffffffff1602179055506130cc6001600660003373ffffffffffffffffffffffffffffffffffffffff1673ffffffffffffffffffffffffffffffffffffffff1681526020019081526020016000205461344d90919063ffffffff16565b600660003373ffffffffffffffffffffffffffffffffffffffff1673ffffffffffffffffffffffffffffffffffffffff168152602001908152602001600020819055507f88f026aacbbecc90c18411df4b1185fd8d9be2470f1962f192bf84a27d0704b78184846040518084815260200180602001838152602001828103825284818151815260200191508051906020019080838360005b8381101561317f578082015181840152602081019050613164565b50505050905090810190601f1680156131ac5780820380516001836020036101000a031916815260200191505b5094505050505060405180910390a1505050565b60006131d8600160095461344d90919063ffffffff16565b600981905550814233600954604051602001808481526020018373ffffffffffffffffffffffffffffffffffffffff1673ffffffffffffffffffffffffffffffffffffffff166c0100000000000000000000000002815260140182815260200193505050506040516020818303038152906040526040518082805190602001908083835b602083101515613281578051825260208201915060208101905060208303925061325c565b6001836020036101000a0380198251168184511680821785525050505050509050019150506040518091039020600190048115156132bb57fe5b069050919050565b60008082840190508361ffff168161ffff16101515156132df57fe5b8091505092915050565b60035442018160020160046101000a81548163ffffffff021916908363ffffffff16021790555050565b600073ffffffffffffffffffffffffffffffffffffffff168173ffffffffffffffffffffffffffffffffffffffff161415151561334f57600080fd5b8073ffffffffffffffffffffffffffffffffffffffff166000809054906101000a900473ffffffffffffffffffffffffffffffffffffffff1673ffffffffffffffffffffffffffffffffffffffff167f8be0079c531659141344cd1fd0a4f28419497f9722a3daafe3b4186f6b6457e060405160405180910390a3806000806101000a81548173ffffffffffffffffffffffffffffffffffffffff021916908373ffffffffffffffffffffffffffffffffffffffff16021790555050565b6000428260020160049054906101000a900463ffffffff1663ffffffff1611159050919050565b600082821115151561344257fe5b818303905092915050565b600080828401905083811015151561346157fe5b8091505092915050565b606060405190810160405280600073ffffffffffffffffffffffffffffffffffffffff168152602001600081526020016000151581525090565b828054600181600116156101000203166002900490600052602060002090601f016020900481019282601f106134e657803560ff1916838001178555613514565b82800160010185558215613514579182015b828111156135135782358255916020019190600101906134f8565b5b5090506135219190613625565b5090565b828054600181600116156101000203166002900490600052602060002090601f016020900481019282601f1061356657805160ff1916838001178555613594565b82800160010185558215613594579182015b82811115613593578251825591602001919060010190613578565b5b5090506135a19190613625565b5090565b828054600181600116156101000203166002900490600052602060002090601f016020900481019282601f106135e657805160ff1916838001178555613614565b82800160010185558215613614579182015b828111156136135782518255916020019190600101906135f8565b5b5090506136219190613625565b5090565b61364791905b8082111561364357600081600090555060010161362b565b5090565b905600a165627a7a72305820ac554999bc205517076313e52c29662de75a7e1d8711a8e4c943b152c5f5a5510029",
  "source": "pragma solidity ^0.4.25;\n\nimport \"./zombieattack.sol\";\nimport \"./erc721.sol\";\nimport \"./safemath.sol\";\n\ncontract ZombieOwnership is ZombieAttack, ERC721 {\n\n  using SafeMath for uint256;\n\n  mapping (uint => address) zombieApprovals;\n\n  // ===== MARKETPLACE STORAGE =====\n  struct Listing {\n    address seller;\n    uint256 price;\n    bool isActive;\n  }\n  \n  mapping(uint256 => Listing) public zombieListings;\n  uint256[] public listedZombies;\n  \n  // ===== MARKETPLACE EVENTS =====\n  event ZombieListed(uint256 indexed zombieId, address indexed seller, uint256 price);\n  event ZombieSold(uint256 indexed zombieId, address indexed seller, address indexed buyer, uint256 price);\n  event ListingCancelled(uint256 indexed zombieId, address indexed seller);\n\n  // ===== ERC721 FUNCTIONS =====\n  function balanceOf(address _owner) external view returns (uint256) {\n    return ownerZombieCount[_owner];\n  }\n\n  function ownerOf(uint256 _tokenId) external view returns (address) {\n    return zombieToOwner[_tokenId];\n  }\n\n  function _transfer(address _from, address _to, uint256 _tokenId) private {\n    ownerZombieCount[_to]   = ownerZombieCount[_to].add(1);\n    ownerZombieCount[_from] = ownerZombieCount[_from].sub(1);\n    zombieToOwner[_tokenId] = _to;\n    emit Transfer(_from, _to, _tokenId);\n  }\n\n  function transferFrom(address _from, address _to, uint256 _tokenId) external payable {\n    require (zombieToOwner[_tokenId] == msg.sender || zombieApprovals[_tokenId] == msg.sender);\n    \n    // Cancel listing if zombie is being transferred\n    if (zombieListings[_tokenId].isActive) {\n      zombieListings[_tokenId].isActive = false;\n      emit ListingCancelled(_tokenId, zombieToOwner[_tokenId]);\n    }\n    \n    _transfer(_from, _to, _tokenId);\n  }\n\n  function approve(address _approved, uint256 _tokenId) external payable onlyOwnerOf(_tokenId) {\n    zombieApprovals[_tokenId] = _approved;\n    emit Approval(msg.sender, _approved, _tokenId);\n  }\n\n  // ===== MARKETPLACE FUNCTIONS =====\n  \n  // List a zombie for sale\n  function listZombieForSale(uint256 _zombieId, uint256 _price) external onlyOwnerOf(_zombieId) {\n    require(_price > 0, \"Price must be greater than 0\");\n    require(!zombieListings[_zombieId].isActive, \"Zombie already listed\");\n    \n    zombieListings[_zombieId] = Listing({\n      seller: msg.sender,\n      price: _price,\n      isActive: true\n    });\n    \n    listedZombies.push(_zombieId);\n    \n    emit ZombieListed(_zombieId, msg.sender, _price);\n  }\n  \n  // Buy a listed zombie\n  function buyZombie(uint256 _zombieId) external payable {\n    Listing storage listing = zombieListings[_zombieId];\n    \n    require(listing.isActive, \"Zombie is not listed for sale\");\n    require(msg.value >= listing.price, \"Insufficient payment\");\n    require(msg.sender != listing.seller, \"Cannot buy your own zombie\");\n    require(zombieToOwner[_zombieId] == listing.seller, \"Seller no longer owns this zombie\");\n    \n    address seller = listing.seller;\n    uint256 price = listing.price;\n    \n    // Mark listing as inactive\n    listing.isActive = false;\n    \n    // Transfer zombie ownership\n    _transfer(seller, msg.sender, _zombieId);\n    \n    // Transfer payment to seller\n    seller.transfer(price);\n    \n    // Refund excess payment\n    if (msg.value > price) {\n      msg.sender.transfer(msg.value - price);\n    }\n    \n    emit ZombieSold(_zombieId, seller, msg.sender, price);\n  }\n  \n  // Cancel a listing\n  function cancelListing(uint256 _zombieId) external {\n    Listing storage listing = zombieListings[_zombieId];\n    \n    require(listing.isActive, \"Zombie is not listed\");\n    require(msg.sender == listing.seller, \"Only seller can cancel listing\");\n    \n    listing.isActive = false;\n    \n    emit ListingCancelled(_zombieId, msg.sender);\n  }\n  \n  // Get all active listings\n  function getActiveListings() external view returns (uint256[]) {\n    uint256 activeCount = 0;\n    \n    // Count active listings\n    for (uint256 i = 0; i < listedZombies.length; i++) {\n      if (zombieListings[listedZombies[i]].isActive) {\n        activeCount++;\n      }\n    }\n    \n    // Create array of active listings\n    uint256[] memory activeListings = new uint256[](activeCount);\n    uint256 index = 0;\n    \n    for (uint256 j = 0; j < listedZombies.length; j++) {\n      if (zombieListings[listedZombies[j]].isActive) {\n        activeListings[index] = listedZombies[j];\n        index++;\n      }\n    }\n    \n    return activeListings;\n  }\n  \n  // Check if a zombie is listed\n  function isListed(uint256 _zombieId) external view returns (bool) {\n    return zombieListings[_zombieId].isActive;\n  }\n  \n  // Get listing details\n  function getListing(uint256 _zombieId) external view returns (address seller, uint256 price, bool isActive) {\n    Listing memory listing = zombieListings[_zombieId];\n    return (listing.seller, listing.price, listing.isActive);\n  }\n\n}",
  "sourcePath": "/Users/csuftitan/Downloads/Cryptozombie demo package/contracts/zombieownership.sol",
  "compiler": {
    "name": "solc",
    "version": "0.4.25+commit.59dbf8f1.Emscripten.clang"
  },
  "schemaVersion": "3.4.4",
  "updatedAt": "2025-10-19T21:00:17.018Z",
  "networkType": "ethereum",
  "devdoc": {
    "methods": {
      "isOwner()": {
        "return": "true if `msg.sender` is the owner of the contract."
      },
      "owner()": {
        "return": "the address of the owner."
      },
      "renounceOwnership()": {
        "details": "Allows the current owner to relinquish control of the contract."
      },
      "transferOwnership(address)": {
        "details": "Allows the current owner to transfer control of the contract to a newOwner.",
        "params": {
          "newOwner": "The address to transfer ownership to."
        }
      }
    }
  },
  "userdoc": {
    "methods": {
      "renounceOwnership()": {
        "notice": "Renouncing to ownership will leave the contract without an owner. It will not be possible to call the functions with the `onlyOwner` modifier anymore."
      }
    }
  }
}